:100000000C9434000C9449000C9449000C94490061
:100010000C9449000C9449000C9449000C9449003C
:100020000C9449000C9449000C9449000C9449002C
:100030000C9449000C9449000C9449000C9449001C
:100040000C9449000C9449000C9449000C9449000C
:100050000C9449000C9449000C9449000C944900FC
:100060000C9449000C94490011241FBECFEFD8E036
:10007000DEBFCDBF11E0A0E0B1E0E6E2F1E002C0FA
:1000800005900D92AC30B107D9F70E9462000C9434
:1000900091000C9400001092C50087E68093C40084
:1000A000E1ECF0E0808188618083E2ECF0E0808127
:1000B0008660808308959091C00095FFFCCF809367
:1000C000C6000895CF93DF93CDB7DEB72B970FB659
:1000D000F894DEBF0FBECDBF0E944B008BE0E0E086
:1000E000F1E0DE01119601900D928A95E1F700E0B2
:1000F00010E00DC00E945B002FEF89E698E12150CF
:1001000080409040E1F700C000000F5F1F4FE1E02A
:10011000F0E0EC0FFD1FE00FF11F80818111EACFAD
:06012000E6CFF894FFCFCA
:0C0126003832353736343338380A0000E0
:00000001FF
