:100000000C945A000C9464000C9464000C946400EA
:100010000C9464000C9464000C9464000C946400D0
:100020000C9464000C9464000C9464000C946400C0
:100030000C9464000C9464000C9464000C946400B0
:100040000C9464000C9464000C9464000C946400A0
:100050000C9464000C9464000C9464000C94640090
:100060000C9464000C9464000C9464000C94640080
:100070000C9464000C9464000C9464000C94640070
:100080000C9464000C9464000C9464000C94640060
:100090000C9464000C9464000C9464000C94640050
:1000A0000C9464000C9464000C9464000C94640040
:1000B0000C94640011241FBECFEFD8E0DEBFCDBF8B
:1000C0000E9466000C942A070C94000084B18062A0
:1000D00084B985B1806285B92FEF83EC99E0215016
:1000E00080409040E1F700C0000085B18F7D85B968
:1000F0002FEF83EC99E0215080409040E1F700C061
:10010000000085B1806285B92FEF8BE49DE121501D
:1001100080409040E1F700C0000085B18F7D85B937
:100120002FEF83EC99E0215080409040E1F700C030
:10013000000085B1806285B92FEF8BE49DE12150ED
:1001400080409040E1F700C0000085B18F7D85B907
:100150002FEF83EC99E0215080409040E1F700C000
:10016000000085B1806285B92FEF8BE49DE12150BD
:1001700080409040E1F700C0000085B18F7D85B9D7
:100180002FEF8BE49DE1215080409040E1F700C0CB
:10019000000085B1806285B92FEF8BE49DE121508D
:1001A00080409040E1F700C0000085B18F7D85B9A7
:1001B0002FEF83EC99E0215080409040E1F700C0A0
:1001C000000085B1806285B92FEF8BE49DE121505D
:1001D00080409040E1F700C0000085B18F7D85B977
:1001E0002FEF83EC99E0215080409040E1F700C070
:1001F000000085B1806285B92FEF8BE49DE121502D
:1002000080409040E1F700C0000085B18F7D85B946
:100210002FEF8BE49DE1215080409040E1F700C03A
:10022000000085B1806285B92FEF83EC99E0215001
:1002300080409040E1F700C0000085B18F7D85B916
:100240002FEF83EC99E0215080409040E1F700C00F
:10025000000085B1806285B92FEF83EC99E02150D1
:1002600080409040E1F700C0000085B18F7D85B9E6
:100270002FEF83EC99E0215080409040E1F700C0DF
:10028000000085B1806285B92FEF83EC99E02150A1
:1002900080409040E1F700C0000085B18F7D85B9B6
:1002A0002FEF83EC99E0215080409040E1F700C0AF
:1002B000000085B1806285B92FEF83EC99E0215071
:1002C00080409040E1F700C0000085B18F7D85B986
:1002D0002FEF8BE49DE1215080409040E1F700C07A
:1002E000000085B1806285B92FEF8BE49DE121503C
:1002F00080409040E1F700C0000085B18F7D85B956
:100300002FEF83EC99E0215080409040E1F700C04E
:10031000000085B1806285B92FEF83EC99E0215010
:1003200080409040E1F700C0000085B18F7D85B925
:100330002FEF8BE594E4215080409040E1F700C01E
:10034000000085B1806285B92FEF83EC99E02150E0
:1003500080409040E1F700C0000085B18F7D85B9F5
:100360002FEF83EC99E0215080409040E1F700C0EE
:10037000000085B1806285B92FEF83EC99E02150B0
:1003800080409040E1F700C0000085B18F7D85B9C5
:100390002FEF83EC99E0215080409040E1F700C0BE
:1003A000000085B1806285B92FEF83EC99E0215080
:1003B00080409040E1F700C0000085B18F7D85B995
:1003C0002FEF8BE49DE1215080409040E1F700C089
:1003D000000085B1806285B92FEF83EC99E0215050
:1003E00080409040E1F700C0000085B18F7D85B965
:1003F0002FEF83EC99E0215080409040E1F700C05E
:10040000000085B1806285B92FEF8BE49DE121501A
:1004100080409040E1F700C0000085B18F7D85B934
:100420002FEF8BE49DE1215080409040E1F700C028
:10043000000085B1806285B92FEF8BE49DE12150EA
:1004400080409040E1F700C0000085B18F7D85B904
:100450002FEF83EC99E0215080409040E1F700C0FD
:10046000000085B1806285B92FEF83EC99E02150BF
:1004700080409040E1F700C0000085B18F7D85B9D4
:100480002FEF83EC99E0215080409040E1F700C0CD
:10049000000085B1806285B92FEF83EC99E021508F
:1004A00080409040E1F700C0000085B18F7D85B9A4
:1004B0002FEF8BE49DE1215080409040E1F700C098
:1004C000000085B1806285B92FEF83EC99E021505F
:1004D00080409040E1F700C0000085B18F7D85B974
:1004E0002FEF83EC99E0215080409040E1F700C06D
:1004F000000085B1806285B92FEF83EC99E021502F
:1005000080409040E1F700C0000085B18F7D85B943
:100510002FEF8BE49DE1215080409040E1F700C037
:10052000000085B1806285B92FEF8BE49DE12150F9
:1005300080409040E1F700C0000085B18F7D85B913
:100540002FEF83EC99E0215080409040E1F700C00C
:10055000000085B1806285B92FEF8BE49DE12150C9
:1005600080409040E1F700C0000085B18F7D85B9E3
:100570002FEF83EC99E0215080409040E1F700C0DC
:10058000000085B1806285B92FEF83EC99E021509E
:1005900080409040E1F700C0000085B18F7D85B9B3
:1005A0002FEF83EC99E0215080409040E1F700C0AC
:1005B000000085B1806285B92FEF8BE49DE1215069
:1005C00080409040E1F700C0000085B18F7D85B983
:1005D0002FEF8BE49DE1215080409040E1F700C077
:1005E000000085B1806285B92FEF8BE49DE1215039
:1005F00080409040E1F700C0000085B18F7D85B953
:100600002FEF83EC99E0215080409040E1F700C04B
:10061000000085B1806285B92FEF8BE49DE1215008
:1006200080409040E1F700C0000085B18F7D85B922
:100630002FEF83EC99E0215080409040E1F700C01B
:10064000000085B1806285B92FEF8BE49DE12150D8
:1006500080409040E1F700C0000085B18F7D85B9F2
:100660002FEF83EC99E0215080409040E1F700C0EB
:10067000000085B1806285B92FEF83EC99E02150AD
:1006800080409040E1F700C0000085B18F7D85B9C2
:100690002FEF83EC99E0215080409040E1F700C0BB
:1006A000000085B1806285B92FEF83EC99E021507D
:1006B00080409040E1F700C0000085B18F7D85B992
:1006C0002FEF8BE49DE1215080409040E1F700C086
:1006D000000085B1806285B92FEF83EC99E021504D
:1006E00080409040E1F700C0000085B18F7D85B962
:1006F0002FEF83EC99E0215080409040E1F700C05B
:10070000000085B1806285B92FEF83EC99E021501C
:1007100080409040E1F700C0000085B18F7D85B931
:100720002FEF83EC99E0215080409040E1F700C02A
:10073000000085B1806285B92FEF8BE49DE12150E7
:1007400080409040E1F700C0000085B18F7D85B901
:100750002FEF83EC99E0215080409040E1F700C0FA
:10076000000085B1806285B92FEF8BE49DE12150B7
:1007700080409040E1F700C0000085B18F7D85B9D1
:100780002FEF83EC99E0215080409040E1F700C0CA
:10079000000085B1806285B92FEF8BE49DE1215087
:1007A00080409040E1F700C0000085B18F7D85B9A1
:1007B0002FEF8BE49DE1215080409040E1F700C095
:1007C000000085B1806285B92FEF83EC99E021505C
:1007D00080409040E1F700C0000085B18F7D85B971
:1007E0002FEF83EC99E0215080409040E1F700C06A
:1007F000000085B1806285B92FEF83EC99E021502C
:1008000080409040E1F700C0000085B18F7D85B940
:100810002FEF83EC99E0215080409040E1F700C039
:10082000000085B1806285B92FEF83EC99E02150FB
:1008300080409040E1F700C0000085B18F7D85B910
:100840002FEF83EC99E0215080409040E1F700C009
:10085000000085B1806285B92FEF83EC99E02150CB
:1008600080409040E1F700C0000085B18F7D85B9E0
:100870002FEF83EC99E0215080409040E1F700C0D9
:10088000000085B1806285B92FEF83EC99E021509B
:1008900080409040E1F700C0000085B18F7D85B9B0
:1008A0002FEF8BE49DE1215080409040E1F700C0A4
:1008B000000085B1806285B92FEF8BE49DE1215066
:1008C00080409040E1F700C0000085B18F7D85B980
:1008D0002FEF83EC99E0215080409040E1F700C079
:1008E000000085B1806285B92FEF8BE49DE1215036
:1008F00080409040E1F700C0000085B18F7D85B950
:100900002FEF83EC99E0215080409040E1F700C048
:10091000000085B1806285B92FEF83EC99E021500A
:1009200080409040E1F700C0000085B18F7D85B91F
:100930002FEF83EC99E0215080409040E1F700C018
:10094000000085B1806285B92FEF83EC99E02150DA
:1009500080409040E1F700C0000085B18F7D85B9EF
:100960002FEF83EC99E0215080409040E1F700C0E8
:10097000000085B1806285B92FEF83EC99E02150AA
:1009800080409040E1F700C0000085B18F7D85B9BF
:100990002FEF8BE49DE1215080409040E1F700C0B3
:1009A000000085B1806285B92FEF8BE49DE1215075
:1009B00080409040E1F700C0000085B18F7D85B98F
:1009C0002FEF83EC99E0215080409040E1F700C088
:1009D000000085B1806285B92FEF83EC99E021504A
:1009E00080409040E1F700C0000085B18F7D85B95F
:1009F0002FEF83EC99E0215080409040E1F700C058
:100A0000000085B1806285B92FEF83EC99E0215019
:100A100080409040E1F700C0000085B18F7D85B92E
:100A20002FEF83EC99E0215080409040E1F700C027
:100A3000000085B1806285B92FEF83EC99E02150E9
:100A400080409040E1F700C0000085B18F7D85B9FE
:100A50002FEF83EC99E0215080409040E1F700C0F7
:100A6000000085B1806285B92FEF83EC99E02150B9
:100A700080409040E1F700C0000085B18F7D85B9CE
:100A80002FEF8BE49DE1215080409040E1F700C0C2
:100A9000000085B1806285B92FEF83EC99E0215089
:100AA00080409040E1F700C0000085B18F7D85B99E
:100AB0002FEF83EC99E0215080409040E1F700C097
:100AC000000085B1806285B92FEF83EC99E0215059
:100AD00080409040E1F700C0000085B18F7D85B96E
:100AE0002FEF83EC99E0215080409040E1F700C067
:100AF000000085B1806285B92FEF83EC99E0215029
:100B000080409040E1F700C0000085B18F7D85B93D
:100B10002FEF83EC99E0215080409040E1F700C036
:100B2000000085B1806285B92FEF83EC99E02150F8
:100B300080409040E1F700C0000085B18F7D85B90D
:100B40002FEF83EC99E0215080409040E1F700C006
:100B5000000085B1806285B92FEF8BE49DE12150C3
:100B600080409040E1F700C0000085B18F7D85B9DD
:100B70002FEF8BE49DE1215080409040E1F700C0D1
:100B8000000085B1806285B92FEF83EC99E0215098
:100B900080409040E1F700C0000085B18F7D85B9AD
:100BA0002FEF83EC99E0215080409040E1F700C0A6
:100BB000000085B1806285B92FEF83EC99E0215068
:100BC00080409040E1F700C0000085B18F7D85B97D
:100BD0002FEF83EC99E0215080409040E1F700C076
:100BE000000085B1806285B92FEF83EC99E0215038
:100BF00080409040E1F700C0000085B18F7D85B94D
:100C00002FEF83EC99E0215080409040E1F700C045
:100C1000000085B1806285B92FEF8BE49DE1215002
:100C200080409040E1F700C0000085B18F7D85B91C
:100C30002FEF83EC99E0215080409040E1F700C015
:100C4000000085B1806285B92FEF8BE49DE12150D2
:100C500080409040E1F700C0000085B18F7D85B9EC
:100C60002FEF8BE49DE1215080409040E1F700C0E0
:100C7000000085B1806285B92FEF8BE49DE12150A2
:100C800080409040E1F700C0000085B18F7D85B9BC
:100C90002FEF83EC99E0215080409040E1F700C0B5
:100CA000000085B1806285B92FEF8BE49DE1215072
:100CB00080409040E1F700C0000085B18F7D85B98C
:100CC0002FEF83EC99E0215080409040E1F700C085
:100CD000000085B1806285B92FEF8BE49DE1215042
:100CE00080409040E1F700C0000085B18F7D85B95C
:100CF0002FEF83EC99E0215080409040E1F700C055
:100D0000000085B1806285B92FEF83EC99E0215016
:100D100080409040E1F700C0000085B18F7D85B92B
:100D20002FEF83EC99E0215080409040E1F700C024
:100D3000000085B1806285B92FEF83EC99E02150E6
:100D400080409040E1F700C0000085B18F7D85B9FB
:100D50002FEF8BE49DE1215080409040E1F700C0EF
:100D6000000085B1806285B92FEF8BE49DE12150B1
:100D700080409040E1F700C0000085B18F7D85B9CB
:100D80002FEF83EC99E0215080409040E1F700C0C4
:100D9000000085B1806285B92FEF8BE49DE1215081
:100DA00080409040E1F700C0000085B18F7D85B99B
:100DB0002FEF83EC99E0215080409040E1F700C094
:100DC000000085B1806285B92FEF8BE49DE1215051
:100DD00080409040E1F700C0000085B18F7D85B96B
:100DE0002FEF83EC99E0215080409040E1F700C064
:100DF000000085B1806285B92FEF83EC99E0215026
:100E000080409040E1F700C0000085B18F7D85B93A
:100E10002FEF83EC99E0215080409040E1F700C033
:100E2000000085B1806285B92FEF83EC99E02150F5
:100E300080409040E1F700C0000085B18F7D85B90A
:100E40002FEF8BE49DE1215080409040E1F700C0FE
:080E500000003FC9F894FFCF38
:00000001FF
