:100000000C9434000C9449000C9449000C94490061
:100010000C9449000C9449000C9449000C9449003C
:100020000C9449000C9449000C9449000C9449002C
:100030000C9449000C9449000C9449000C9449001C
:100040000C9449000C9449000C9449000C9449000C
:100050000C9449000C9449000C9449000C944900FC
:100060000C9449000C94490011241FBECFEFD8E036
:10007000DEBFCDBF11E0A0E0B1E0EAE6F1E002C0F2
:1000800005900D92A031B107D9F70E9462000C943F
:10009000B3000C9400001092C50087E68093C40062
:1000A000E1ECF0E0808188618083E2ECF0E0808127
:1000B0008660808308959091C00095FFFCCF809367
:1000C000C60008950E944B0084B1887E84B98AB12D
:1000D000806F8AB985B18F6085B98BB1806F8BB91C
:1000E000E12CF12C3BC08BB197012C5F3F4F01E01D
:1000F00010E002C0000F111F2A95E2F7902F909593
:1001000089238BB9C0E0D0E020C083B190E00C2EF1
:1001100002C0959587950A94E2F780FD15C08FEF90
:1001200095EA2EE0815090402040E1F700C00000A9
:10013000F701EE0FFF1FEE0FFF1FE050FF4FEC0F18
:10014000FD1F80810E945B002196C430D105E8F23A
:100150008BB1082B0BB98FEFE81AF80A94E0E91677
:0A016000F10408F2BDCFF894FFCFC0
:10016A003132334134353642373839432A30234421
:00000001FF
