:100000000C945A000C946F000C946F000C946F00C9
:100010000C946F000C946F000C946F000C946F00A4
:100020000C946F000C946F000C946F000C946F0094
:100030000C946F000C946F000C946F000C946F0084
:100040000C946F000C946F000C946F000C946F0074
:100050000C946F000C946F000C946F000C946F0064
:100060000C946F000C946F000C946F000C946F0054
:100070000C946F000C946F000C946F000C946F0044
:100080000C946F000C946F000C946F000C946F0034
:100090000C946F000C946F000C946F000C946F0024
:1000A0000C946F000C946F000C946F000C946F0014
:1000B0000C946F0011241FBECFEFD8E0DEBFCDBF80
:1000C00011E0A0E0B1E0E0EBF4E002C005900D9299
:1000D000A032B107D9F70E94CE000C9456020C94BE
:1000E00000008AB1806F8AB984B1807F84B985B1FC
:1000F0008F6085B98BB1806F8BB98AB182608AB904
:1001000084B1806284B90895BC0184B5826084BDE5
:1001100067BD072E000C880B990B0E945D0120E043
:1001200030E040E05FE30E94C1010E942C0168BD05
:1001300085B5846085BD0895CF93C62F0E94840045
:1001400021C08BB182608BB9AA9BFBCF28B581E01F
:1001500090E002C0880F991F2A95E2F795B3892B8A
:1001600085BB03C08BB18D7F8BB9A99BFBCF27B516
:1001700081E090E002C0880F991F2A95E2F795B3BD
:10018000892B85BB83B190E00C2E02C09595879595
:100190000A94E2F780FFD8CFCF910895CF93DF93F1
:1001A000CDB7DEB7A0970FB6F894DEBF0FBECDBFB8
:1001B0000E94710080E2E0E0F1E0DE011196019022
:1001C0000D928A95E1F76894CC24C2F8D12C3EC0F8
:1001D0008BB121E030E079010C2C02C0EE0CFF1C49
:1001E0000A94E2F79E2D909589238BB900E010E0E8
:1001F00024C083B190E0002E02C0959587950A94A3
:10020000E2F780FD15C0F6013497EE0FFF1FEE0FE9
:10021000FF1FE00FF11FEE0FFF1F81E090E08C0F3A
:100220009D1FE80FF91FB801808191810E949C00F9
:1002300085B18F6085B90F5F1F4F04301105CCF277
:100240008BB1E82AEBB89FEFC91AD90A88E0C81623
:10025000D1040CF4BDCFB7CF0E94A00188F09F5706
:1002600098F0B92F9927B751B0F0E1F0660F771FDA
:10027000881F991F1AF0BA95C9F714C0B13091F0D0
:100280000E94BA01B1E008950C94BA01672F782F4B
:100290008827B85F39F0B93FCCF386957795679595
:1002A000B395D9F73EF490958095709561957F4F01
:1002B0008F4F9F4F0895E89409C097FB3EF49095A7
:1002C0008095709561957F4F8F4F9F4F9923A9F02F
:1002D000F92F96E9BB279395F695879577956795BE
:1002E000B795F111F8CFFAF4BB0F11F460FF1BC002
:1002F0006F5F7F4F8F4F9F4F16C0882311F096E995
:1003000011C0772321F09EE8872F762F05C0662342
:1003100071F096E8862F70E060E02AF09A95660FFB
:10032000771F881FDAF7880F9695879597F90895B4
:1003300057FD9058440F551F59F05F3F71F0479596
:10034000880F97FB991F61F09F3F79F0879508957B
:10035000121613061406551FF2CF4695F1DF08C09A
:10036000161617061806991FF1CF869571056105B7
:1003700008940895E894BB2766277727CB0197F95F
:1003800008950E94D4010C9445020E94370238F06F
:100390000E943E0220F0952311F00C942E020C9442
:1003A000340211240C94BB010E94980170F3959FB4
:1003B000C1F3950F50E0551F629FF001729FBB275C
:1003C000F00DB11D639FAA27F00DB11DAA1F649FF8
:1003D0006627B00DA11D661F829F2227B00DA11DAB
:1003E000621F739FB00DA11D621F839FA00D611D31
:1003F000221F749F3327A00D611D231F849F600D52
:10040000211D822F762F6A2F11249F5750409AF07A
:10041000F1F088234AF0EE0FFF1FBB1F661F771F06
:10042000881F91505040A9F79E3F510580F00C94D1
:100430002E020C94BB015F3FE4F3983ED4F3869503
:1004400077956795B795F795E7959F5FC1F7FE2B71
:10045000880F911D9695879597F9089597F99F674D
:1004600080E870E060E008959FEF80EC089500243C
:100470000A941616170618060906089500240A9409
:1004800012161306140605060895092E0394000C8F
:1004900011F4882352F0BB0F40F4BF2B11F460FF1E
:1004A00004C06F5F7F4F8F4F9F4F0895F894FFCF29
:1004B0008D0085007E0077007000690063005E009B
:1004C000580053004F004A00460042003E003B00E7
:00000001FF
