S00C00004C6162342E73726563D5
S11300000C945A000C9464000C9464000C946400E6
S11300100C9464000C9464000C9464000C946400CC
S11300200C9464000C9464000C9464000C946400BC
S11300300C9464000C9464000C9464000C946400AC
S11300400C9464000C9464000C9464000C9464009C
S11300500C9464000C9464000C9464000C9464008C
S11300600C9464000C9464000C9464000C9464007C
S11300700C9464000C9464000C9464000C9464006C
S11300800C9464000C9464000C9464000C9464005C
S11300900C9464000C9464000C9464000C9464004C
S11300A00C9464000C9464000C9464000C9464003C
S11300B00C94640011241FBECFEFD8E0DEBFCDBF87
S11300C00E9466000C949A000C9400008BE987BD92
S11300D018BC84B18F7784B985B1806885B984B13F
S11300E0806284B984B5826084BD85B5856085BD30
S11300F085B1806285B9AA9BFECF85B3846085BB38
S113010085B18F7D85B9A99BFECF85B3826085BB00
S11301101F9907C098B587B5981718F488B58F5FED
S113012088BD1F9BE5CF88B5882311F388B581501E
S10B013088BDDECFF894FFCF77
S9030000FC
