S00C00004C6162362E73726563D3
S11300000C945A000C9477000C9477000C947700AD
S11300100C9477000C9477000C9477000C94FE00F9
S11300200C9477000C9477000C9477000C94770070
S11300300C9477000C9477000C9430010C944201DA
S11300400C9477000C9477000C9477000C94770050
S11300500C9477000C9477000C9477000C94770040
S11300600C9477000C9477000C9477000C94770030
S11300700C9477000C9477000C9477000C94770020
S11300800C9477000C9477000C9477000C94770010
S11300900C9477000C9477000C9477000C94770000
S11300A00C9477000C9477000C9477000C947700F0
S11300B00C94770011241FBECFEFD8E0DEBFCDBF74
S11300C011E0A0E0B1E0EEEBF2E002C005900D9289
S11300D0A031B107D9F721E0A0E1B1E001C01D9240
S11300E0A431B207E1F70E9454010C945D010C9411
S11300F0000084B1807F84B985B18F6085B98AB1ED
S1130100806F8AB98BB1806F8BB984B1806284B9F6
S11301100895109213011092120154C04BB12C5F38
S11301203F4F81E090E002C0880F991F2A95E2F7C3
S1130130809584238BB9109211011092100122C072
S113014083B190E0022E02C0959587950A94E2F758
S113015080FD0FC08091120190911301880F991FA7
S1130160880F991F80509F4FFC01E20FF31F80817D
S113017088BD809110019091110101969093110115
S11301808093100120911001309111012430310528
S1130190B8F24BB120911201309113012C5F3F4F03
S11301A081E090E002C0880F991F2A95E2F7842B22
S11301B08BB98091120190911301019690931301D0
S11301C080931201209112013091130124303105E2
S11301D008F4A4CF08958AEF8093B300E0EBF0E035
S11301E0808182608083E1EBF0E0808184608083A1
S11301F0E0E7F0E080818260808308951F920F928F
S11302000FB60F9211242F933F934F935F936F93E5
S11302107F938F939F93AF93BF93EF93FF930E942A
S11302208900FF91EF91BF91AF919F918F917F9141
S11302306F915F914F913F912F910F900FBE0F904F
S11302401F90189585E487BD84B5826084BD85B50B
S1130250846085BDEEE6F0E0808186608083089549
S11302601F920F920FB60F9211248F9388B5882393
S113027019F085B1806285B98F910F900FBE0F90F0
S11302801F9018951F920F920FB60F9211248F93FF
S113029088B58A3F18F485B18F7D85B98F910F9009
S11302A00FBE0F901F901895F8940E9479000E9439
S11102B0EB000E9422017894FFCFF894FFCF58
S11302BE19324BF9647D96F9AFC8E1F9000000F9E3
S9030000FC
