S00D00004C616220382E73726563B0
S11300000C945A000C9464000C9464000C946400E6
S11300100C9464000C9464000C9464000C946400CC
S11300200C9464000C9464000C9464000C946400BC
S11300300C9464000C9464000C9475000C94870078
S11300400C9464000C9464000C9464000C9464009C
S11300500C9464000C9464000C9464000C9464008C
S11300600C9464000C9464000C9464000C9464007C
S11300700C9464000C9464000C9464000C9464006C
S11300800C9464000C9464000C9464000C9464005C
S11300900C9464000C9464000C9464000C9464004C
S11300A00C9464000C9464000C9464000C9464003C
S11300B00C94640011241FBECFEFD8E0DEBFCDBF87
S11300C00E94AF000C94D1000C9400008BE987BD12
S11300D084B5826084BD85B5856085BDEEE6F0E0BB
S11300E0808186608083789408951F920F920FB662
S11300F00F9211248F9388B5882319F085B18062FB
S113010085B98F910F900FBE0F901F9018951F9275
S11301100F920FB60F9211248F9388B58C3918F46F
S113012085B18F7D85B98F910F900FBE0F901F9071
S1130130189583E390E00E94BB008B3940F488BD9E
S113014060E1680F83E390E00E94C30008958CE9A6
S113015088BD60E083E390E00E94C3000895F894B2
S113016084B1806284B985B18F7D85B90E946600AF
S11301700E949900FFCFF999FECF92BD81BDF89AF4
S1130180992780B50895262FF999FECF1FBA92BDFD
S113019081BD20BD0FB6F894FA9AF99A0FBE019664
S10901A00895F894FFCF5E
S9030000FC
