S00D00004C616220372E73726563B1
S11300000C945A000C946C000C946C000C946C00CE
S11300100C946C000C946C000C946C000C940D010A
S11300200C941C010C946C000C946C000C946C00EB
S11300300C946C000C946C000C94D0000C946C0028
S11300400C946C000C946C000C946C000C946C007C
S11300500C946C000C94E5000C946C000C946C00F3
S11300600C946C000C946C000C946C000C946C005C
S11300700C946C000C946C000C946C000C946C004C
S11300800C946C000C946C000C946C000C946C003C
S11300900C946C000C946C000C946C000C946C002C
S11300A00C946C000C946C000C946C000C946C001C
S11300B00C946C0011241FBECFEFD8E0DEBFCDBF7F
S11300C021E0A0E0B1E001C01D92A030B207E1F749
S11300D00E94CA000C9455020C94000084B58260FE
S11300E084BD89EF87BD85B5846085BDEEE6F0E00B
S11300F08081826080830895CF92DF92EF92FF9295
S1130100CF93E0EBF0E0208122602083E3EBF0E08A
S113011025E42083C081BC0180E090E00E945A0164
S113012020E030E040E85AE30E94C0016B017C010A
S11301306C2F70E080E090E00E945C01A7019601C2
S11301400E94C0010E942B016093B400E1EBF0E037
S1130150808184608083E0E7F0E080818660808332
S1130160CF91FF90EF90DF90CF900895ECE7F0E00F
S113017080818071808384B1806284B987B18B7FF0
S113018087B9808181648083EAE7F0E080818F68A9
S1130190808308950E946E000E94B6007894FFCF79
S11301A01F920F920FB60F9211248F93EF93FF9328
S11301B0EAE7F0E0808180648083FF91EF918F9182
S11301C00F900FBE0F901F9018951F920F920FB6AD
S11301D00F9211242F933F934F935F936F937F93C9
S11301E08F939F93AF93BF93EF93FF938091780086
S11301F0909179000E947C00FF91EF91BF91AF91A3
S11302009F918F917F916F915F914F913F912F912A
S11302100F900FBE0F901F9018951F920F920FB65C
S11302200F9211248F9385B1806285B98F910F90BD
S11302300FBE0F901F9018951F920F920FB60F923A
S113024011248F9385B18F7D85B98F910F900FBE47
S11302500F901F9018950E949F0188F09F5798F067
S1130260B92F9927B751B0F0E1F0660F771F881FB7
S1130270991F1AF0BA95C9F714C0B13091F00E94D1
S1130280B901B1E008950C94B901672F782F88273C
S1130290B85F39F0B93FCCF3869577956795B395F8
S11302A0D9F73EF490958095709561957F4F8F4F67
S11302B09F4F0895E89409C097FB3EF4909580956C
S11302C0709561957F4F8F4F9F4F9923A9F0F92F18
S11302D096E9BB279395F695879577956795B79596
S11302E0F111F8CFFAF4BB0F11F460FF1BC06F5F7C
S11302F07F4F8F4F9F4F16C0882311F096E911C08E
S1130300772321F09EE8872F762F05C0662371F0AE
S113031096E8862F70E060E02AF09A95660F771FC2
S1130320881FDAF7880F9695879597F9089557FDF2
S11303309058440F551F59F05F3F71F04795880F4F
S113034097FB991F61F09F3F79F0879508951216E6
S113035013061406551FF2CF4695F1DF08C0161692
S113036017061806991FF1CF869571056105089443
S11303700895E894BB2766277727CB0197F908955A
S11303800E94D3010C9444020E94360238F00E9469
S11303903D0220F0952311F00C942D020C943302AD
S11303A011240C94BA010E94970170F3959FC1F334
S11303B0950F50E0551F629FF001729FBB27F00D0F
S11303C0B11D639FAA27F00DB11DAA1F649F662764
S11303D0B00DA11D661F829F2227B00DA11D621FB3
S11303E0739FB00DA11D621F839FA00D611D221F6D
S11303F0749F3327A00D611D231F849F600D211D51
S1130400822F762F6A2F11249F5750409AF0F1F0D3
S113041088234AF0EE0FFF1FBB1F661F771F881F3C
S113042091505040A9F79E3F510580F00C942D0245
S11304300C94BA015F3FE4F3983ED4F38695779524
S11304406795B795F795E7959F5FC1F7FE2B880FE2
S1130450911D9695879597F9089597F99F6780E878
S113046070E060E008959FEF80EC089500240A9402
S11304701616170618060906089500240A9412167B
S11304801306140605060895092E0394000C11F4AE
S1130490882352F0BB0F40F4BF2B11F460FF04C05B
S11104A06F5F7F4F8F4F9F4F0895F894FFCFEB
S9030000FC
